{
  "contractName": "Administration",
  "abi": [
    {
      "inputs": [],
      "stateMutability": "nonpayable",
      "type": "constructor"
    },
    {
      "anonymous": false,
      "inputs": [
        {
          "indexed": true,
          "internalType": "address",
          "name": "smartContract",
          "type": "address"
        },
        {
          "indexed": true,
          "internalType": "address",
          "name": "administrator",
          "type": "address"
        }
      ],
      "name": "AdministratorAppointed",
      "type": "event"
    },
    {
      "anonymous": false,
      "inputs": [
        {
          "indexed": true,
          "internalType": "address",
          "name": "smartContract",
          "type": "address"
        },
        {
          "indexed": true,
          "internalType": "address",
          "name": "administrator",
          "type": "address"
        }
      ],
      "name": "AdministratorDemoted",
      "type": "event"
    },
    {
      "anonymous": false,
      "inputs": [
        {
          "indexed": true,
          "internalType": "address",
          "name": "smartContract",
          "type": "address"
        },
        {
          "indexed": true,
          "internalType": "address",
          "name": "owner",
          "type": "address"
        }
      ],
      "name": "NewContractRegistration",
      "type": "event"
    },
    {
      "anonymous": false,
      "inputs": [
        {
          "indexed": true,
          "internalType": "address",
          "name": "smartContract",
          "type": "address"
        },
        {
          "indexed": true,
          "internalType": "address",
          "name": "oldOwner",
          "type": "address"
        },
        {
          "indexed": true,
          "internalType": "address",
          "name": "newOwner",
          "type": "address"
        }
      ],
      "name": "OwnershipTransfer",
      "type": "event"
    },
    {
      "anonymous": false,
      "inputs": [
        {
          "indexed": true,
          "internalType": "address",
          "name": "smartContract",
          "type": "address"
        },
        {
          "indexed": true,
          "internalType": "address",
          "name": "user",
          "type": "address"
        }
      ],
      "name": "UserRegistered",
      "type": "event"
    },
    {
      "anonymous": false,
      "inputs": [
        {
          "indexed": true,
          "internalType": "address",
          "name": "smartContract",
          "type": "address"
        },
        {
          "indexed": true,
          "internalType": "address",
          "name": "user",
          "type": "address"
        }
      ],
      "name": "UserUnregistered",
      "type": "event"
    },
    {
      "inputs": [
        {
          "internalType": "address",
          "name": "_contract",
          "type": "address"
        }
      ],
      "name": "checkRegistrationStatus",
      "outputs": [
        {
          "internalType": "bool",
          "name": "",
          "type": "bool"
        }
      ],
      "stateMutability": "view",
      "type": "function"
    },
    {
      "inputs": [
        {
          "internalType": "address",
          "name": "_tenant",
          "type": "address"
        }
      ],
      "name": "checkOwnership",
      "outputs": [
        {
          "internalType": "bool",
          "name": "",
          "type": "bool"
        }
      ],
      "stateMutability": "view",
      "type": "function"
    },
    {
      "inputs": [
        {
          "internalType": "address",
          "name": "_tenant",
          "type": "address"
        }
      ],
      "name": "checkAdministatorship",
      "outputs": [
        {
          "internalType": "bool",
          "name": "",
          "type": "bool"
        }
      ],
      "stateMutability": "view",
      "type": "function"
    },
    {
      "inputs": [
        {
          "internalType": "address",
          "name": "_tenant",
          "type": "address"
        }
      ],
      "name": "checkRegisteredUser",
      "outputs": [
        {
          "internalType": "bool",
          "name": "",
          "type": "bool"
        }
      ],
      "stateMutability": "view",
      "type": "function"
    },
    {
      "inputs": [
        {
          "internalType": "address",
          "name": "_initialOwner",
          "type": "address"
        }
      ],
      "name": "initialRegistration",
      "outputs": [
        {
          "internalType": "bool",
          "name": "",
          "type": "bool"
        }
      ],
      "stateMutability": "nonpayable",
      "type": "function"
    },
    {
      "inputs": [
        {
          "internalType": "address",
          "name": "_caller",
          "type": "address"
        },
        {
          "internalType": "address",
          "name": "_newOwner",
          "type": "address"
        }
      ],
      "name": "transferOwnership",
      "outputs": [
        {
          "internalType": "bool",
          "name": "",
          "type": "bool"
        }
      ],
      "stateMutability": "nonpayable",
      "type": "function"
    },
    {
      "inputs": [
        {
          "internalType": "address",
          "name": "_caller",
          "type": "address"
        },
        {
          "internalType": "address",
          "name": "_admin",
          "type": "address"
        }
      ],
      "name": "appointAdmin",
      "outputs": [
        {
          "internalType": "bool",
          "name": "",
          "type": "bool"
        }
      ],
      "stateMutability": "nonpayable",
      "type": "function"
    },
    {
      "inputs": [
        {
          "internalType": "address",
          "name": "_caller",
          "type": "address"
        },
        {
          "internalType": "address",
          "name": "_admin",
          "type": "address"
        }
      ],
      "name": "demoteAdmin",
      "outputs": [
        {
          "internalType": "bool",
          "name": "",
          "type": "bool"
        }
      ],
      "stateMutability": "nonpayable",
      "type": "function"
    },
    {
      "inputs": [
        {
          "internalType": "address",
          "name": "_caller",
          "type": "address"
        },
        {
          "internalType": "address",
          "name": "_user",
          "type": "address"
        }
      ],
      "name": "registerUser",
      "outputs": [
        {
          "internalType": "bool",
          "name": "",
          "type": "bool"
        }
      ],
      "stateMutability": "nonpayable",
      "type": "function"
    },
    {
      "inputs": [
        {
          "internalType": "address",
          "name": "_caller",
          "type": "address"
        },
        {
          "internalType": "address",
          "name": "_user",
          "type": "address"
        }
      ],
      "name": "unregisterUser",
      "outputs": [
        {
          "internalType": "bool",
          "name": "",
          "type": "bool"
        }
      ],
      "stateMutability": "nonpayable",
      "type": "function"
    }
  ],
  "bytecode": "0x608060405234801561001057600080fd5b50611748806100206000396000f3fe608060405234801561001057600080fd5b506004361061009e5760003560e01c80636a739c44116100665780636a739c44146102cf5780636d4354211461032b57806376e4931d146103a7578063d330724714610403578063d9d554c81461047f5761009e565b80630354adb2146100a35780630c8b234e1461011f5780631fdac06b1461017b578063221c053f146101f75780635cb318bf14610253575b600080fd5b610105600480360360408110156100b957600080fd5b81019080803573ffffffffffffffffffffffffffffffffffffffff169060200190929190803573ffffffffffffffffffffffffffffffffffffffff1690602001909291905050506104db565b604051808215151515815260200191505060405180910390f35b6101616004803603602081101561013557600080fd5b81019080803573ffffffffffffffffffffffffffffffffffffffff169060200190929190505050610764565b604051808215151515815260200191505060405180910390f35b6101dd6004803603604081101561019157600080fd5b81019080803573ffffffffffffffffffffffffffffffffffffffff169060200190929190803573ffffffffffffffffffffffffffffffffffffffff1690602001909291905050506107f7565b604051808215151515815260200191505060405180910390f35b6102396004803603602081101561020d57600080fd5b81019080803573ffffffffffffffffffffffffffffffffffffffff1690602001909291905050506109ee565b604051808215151515815260200191505060405180910390f35b6102b56004803603604081101561026957600080fd5b81019080803573ffffffffffffffffffffffffffffffffffffffff169060200190929190803573ffffffffffffffffffffffffffffffffffffffff169060200190929190505050610ba3565b604051808215151515815260200191505060405180910390f35b610311600480360360208110156102e557600080fd5b81019080803573ffffffffffffffffffffffffffffffffffffffff169060200190929190505050610e2b565b604051808215151515815260200191505060405180910390f35b61038d6004803603604081101561034157600080fd5b81019080803573ffffffffffffffffffffffffffffffffffffffff169060200190929190803573ffffffffffffffffffffffffffffffffffffffff169060200190929190505050610e80565b604051808215151515815260200191505060405180910390f35b6103e9600480360360208110156103bd57600080fd5b81019080803573ffffffffffffffffffffffffffffffffffffffff169060200190929190505050611110565b604051808215151515815260200191505060405180910390f35b6104656004803603604081101561041957600080fd5b81019080803573ffffffffffffffffffffffffffffffffffffffff169060200190929190803573ffffffffffffffffffffffffffffffffffffffff169060200190929190505050611234565b604051808215151515815260200191505060405180910390f35b6104c16004803603602081101561049557600080fd5b81019080803573ffffffffffffffffffffffffffffffffffffffff16906020019092919050505061142c565b604051808215151515815260200191505060405180910390f35b60008060003373ffffffffffffffffffffffffffffffffffffffff1673ffffffffffffffffffffffffffffffffffffffff16815260200190815260200160002060009054906101000a900460ff1661053257600080fd5b82600260003373ffffffffffffffffffffffffffffffffffffffff1673ffffffffffffffffffffffffffffffffffffffff16815260200190815260200160002060008273ffffffffffffffffffffffffffffffffffffffff1673ffffffffffffffffffffffffffffffffffffffff16815260200190815260200160002060009054906101000a900460ff168061064e5750600160003373ffffffffffffffffffffffffffffffffffffffff1673ffffffffffffffffffffffffffffffffffffffff16815260200190815260200160002060008273ffffffffffffffffffffffffffffffffffffffff1673ffffffffffffffffffffffffffffffffffffffff16815260200190815260200160002060009054906101000a900460ff165b61065757600080fd5b600360003373ffffffffffffffffffffffffffffffffffffffff1673ffffffffffffffffffffffffffffffffffffffff16815260200190815260200160002060008473ffffffffffffffffffffffffffffffffffffffff1673ffffffffffffffffffffffffffffffffffffffff16815260200190815260200160002060009054906101000a900460ff16156106eb57600080fd5b6106f68360016115d2565b6106ff57600080fd5b8273ffffffffffffffffffffffffffffffffffffffff163373ffffffffffffffffffffffffffffffffffffffff167f2138b9314634f9fdd5e49bee3eaf17ca557b6637524d0db759711c3bfcd3d85060405160405180910390a3600191505092915050565b6000600160003373ffffffffffffffffffffffffffffffffffffffff1673ffffffffffffffffffffffffffffffffffffffff16815260200190815260200160002060008373ffffffffffffffffffffffffffffffffffffffff1673ffffffffffffffffffffffffffffffffffffffff16815260200190815260200160002060009054906101000a900460ff169050919050565b60008060003373ffffffffffffffffffffffffffffffffffffffff1673ffffffffffffffffffffffffffffffffffffffff16815260200190815260200160002060009054906101000a900460ff1661084e57600080fd5b82600160003373ffffffffffffffffffffffffffffffffffffffff1673ffffffffffffffffffffffffffffffffffffffff16815260200190815260200160002060008273ffffffffffffffffffffffffffffffffffffffff1673ffffffffffffffffffffffffffffffffffffffff16815260200190815260200160002060009054906101000a900460ff166108e257600080fd5b600260003373ffffffffffffffffffffffffffffffffffffffff1673ffffffffffffffffffffffffffffffffffffffff16815260200190815260200160002060008473ffffffffffffffffffffffffffffffffffffffff1673ffffffffffffffffffffffffffffffffffffffff16815260200190815260200160002060009054906101000a900460ff1661097557600080fd5b610980836000611672565b61098957600080fd5b8273ffffffffffffffffffffffffffffffffffffffff163373ffffffffffffffffffffffffffffffffffffffff167fe2333bbbcf486cc4e09e8ec31e2beff698867fd096c364e272fb440947c907b660405160405180910390a3600191505092915050565b6000600160003373ffffffffffffffffffffffffffffffffffffffff1673ffffffffffffffffffffffffffffffffffffffff16815260200190815260200160002060008373ffffffffffffffffffffffffffffffffffffffff1673ffffffffffffffffffffffffffffffffffffffff16815260200190815260200160002060009054906101000a900460ff1680610b0b5750600260003373ffffffffffffffffffffffffffffffffffffffff1673ffffffffffffffffffffffffffffffffffffffff16815260200190815260200160002060008373ffffffffffffffffffffffffffffffffffffffff1673ffffffffffffffffffffffffffffffffffffffff16815260200190815260200160002060009054906101000a900460ff165b80610b9c5750600360003373ffffffffffffffffffffffffffffffffffffffff1673ffffffffffffffffffffffffffffffffffffffff16815260200190815260200160002060008373ffffffffffffffffffffffffffffffffffffffff1673ffffffffffffffffffffffffffffffffffffffff16815260200190815260200160002060009054906101000a900460ff165b9050919050565b60008060003373ffffffffffffffffffffffffffffffffffffffff1673ffffffffffffffffffffffffffffffffffffffff16815260200190815260200160002060009054906101000a900460ff16610bfa57600080fd5b82600260003373ffffffffffffffffffffffffffffffffffffffff1673ffffffffffffffffffffffffffffffffffffffff16815260200190815260200160002060008273ffffffffffffffffffffffffffffffffffffffff1673ffffffffffffffffffffffffffffffffffffffff16815260200190815260200160002060009054906101000a900460ff1680610d165750600160003373ffffffffffffffffffffffffffffffffffffffff1673ffffffffffffffffffffffffffffffffffffffff16815260200190815260200160002060008273ffffffffffffffffffffffffffffffffffffffff1673ffffffffffffffffffffffffffffffffffffffff16815260200190815260200160002060009054906101000a900460ff165b610d1f57600080fd5b600360003373ffffffffffffffffffffffffffffffffffffffff1673ffffffffffffffffffffffffffffffffffffffff16815260200190815260200160002060008473ffffffffffffffffffffffffffffffffffffffff1673ffffffffffffffffffffffffffffffffffffffff16815260200190815260200160002060009054906101000a900460ff16610db257600080fd5b610dbd8360006115d2565b610dc657600080fd5b8273ffffffffffffffffffffffffffffffffffffffff163373ffffffffffffffffffffffffffffffffffffffff167f115acb0e481324c0bff429d9f9c71f07475e98faec325e8c153f92f2537acc9060405160405180910390a3600191505092915050565b60008060008373ffffffffffffffffffffffffffffffffffffffff1673ffffffffffffffffffffffffffffffffffffffff16815260200190815260200160002060009054906101000a900460ff169050919050565b60008060003373ffffffffffffffffffffffffffffffffffffffff1673ffffffffffffffffffffffffffffffffffffffff16815260200190815260200160002060009054906101000a900460ff16610ed757600080fd5b82600160003373ffffffffffffffffffffffffffffffffffffffff1673ffffffffffffffffffffffffffffffffffffffff16815260200190815260200160002060008273ffffffffffffffffffffffffffffffffffffffff1673ffffffffffffffffffffffffffffffffffffffff16815260200190815260200160002060009054906101000a900460ff16610f6b57600080fd5b6000600160003373ffffffffffffffffffffffffffffffffffffffff1673ffffffffffffffffffffffffffffffffffffffff16815260200190815260200160002060008673ffffffffffffffffffffffffffffffffffffffff1673ffffffffffffffffffffffffffffffffffffffff16815260200190815260200160002060006101000a81548160ff02191690831515021790555060018060003373ffffffffffffffffffffffffffffffffffffffff1673ffffffffffffffffffffffffffffffffffffffff16815260200190815260200160002060008573ffffffffffffffffffffffffffffffffffffffff1673ffffffffffffffffffffffffffffffffffffffff16815260200190815260200160002060006101000a81548160ff0219169083151502179055508273ffffffffffffffffffffffffffffffffffffffff168473ffffffffffffffffffffffffffffffffffffffff163373ffffffffffffffffffffffffffffffffffffffff167f9737d23b40a8676cc51895dfc989bc9287c2cd9ff47d22c3eb629e965b2dd2ef60405160405180910390a4600191505092915050565b6000600160003373ffffffffffffffffffffffffffffffffffffffff1673ffffffffffffffffffffffffffffffffffffffff16815260200190815260200160002060008373ffffffffffffffffffffffffffffffffffffffff1673ffffffffffffffffffffffffffffffffffffffff16815260200190815260200160002060009054906101000a900460ff168061122d5750600260003373ffffffffffffffffffffffffffffffffffffffff1673ffffffffffffffffffffffffffffffffffffffff16815260200190815260200160002060008373ffffffffffffffffffffffffffffffffffffffff1673ffffffffffffffffffffffffffffffffffffffff16815260200190815260200160002060009054906101000a900460ff165b9050919050565b60008060003373ffffffffffffffffffffffffffffffffffffffff1673ffffffffffffffffffffffffffffffffffffffff16815260200190815260200160002060009054906101000a900460ff1661128b57600080fd5b82600160003373ffffffffffffffffffffffffffffffffffffffff1673ffffffffffffffffffffffffffffffffffffffff16815260200190815260200160002060008273ffffffffffffffffffffffffffffffffffffffff1673ffffffffffffffffffffffffffffffffffffffff16815260200190815260200160002060009054906101000a900460ff1661131f57600080fd5b600260003373ffffffffffffffffffffffffffffffffffffffff1673ffffffffffffffffffffffffffffffffffffffff16815260200190815260200160002060008473ffffffffffffffffffffffffffffffffffffffff1673ffffffffffffffffffffffffffffffffffffffff16815260200190815260200160002060009054906101000a900460ff16156113b357600080fd5b6113be836001611672565b6113c757600080fd5b8273ffffffffffffffffffffffffffffffffffffffff163373ffffffffffffffffffffffffffffffffffffffff167f15852ad0fe915d537c6813893f9b36f092dcc652d9a91759077d6e73496b246d60405160405180910390a3600191505092915050565b60008060003373ffffffffffffffffffffffffffffffffffffffff1673ffffffffffffffffffffffffffffffffffffffff16815260200190815260200160002060009054906101000a900460ff161561148457600080fd5b60018060003373ffffffffffffffffffffffffffffffffffffffff1673ffffffffffffffffffffffffffffffffffffffff16815260200190815260200160002060008473ffffffffffffffffffffffffffffffffffffffff1673ffffffffffffffffffffffffffffffffffffffff16815260200190815260200160002060006101000a81548160ff02191690831515021790555060016000803373ffffffffffffffffffffffffffffffffffffffff1673ffffffffffffffffffffffffffffffffffffffff16815260200190815260200160002060006101000a81548160ff0219169083151502179055508173ffffffffffffffffffffffffffffffffffffffff163373ffffffffffffffffffffffffffffffffffffffff167fbec821b8d34c029aea16348a28021ab71c18c596c584657bfe68b990630a715b60405160405180910390a360009050919050565b600081600360003373ffffffffffffffffffffffffffffffffffffffff1673ffffffffffffffffffffffffffffffffffffffff16815260200190815260200160002060008573ffffffffffffffffffffffffffffffffffffffff1673ffffffffffffffffffffffffffffffffffffffff16815260200190815260200160002060006101000a81548160ff0219169083151502179055506001905092915050565b600081600260003373ffffffffffffffffffffffffffffffffffffffff1673ffffffffffffffffffffffffffffffffffffffff16815260200190815260200160002060008573ffffffffffffffffffffffffffffffffffffffff1673ffffffffffffffffffffffffffffffffffffffff16815260200190815260200160002060006101000a81548160ff021916908315150217905550600190509291505056fea26469706673582212208965125b08c92a82a4ba5eedba6bd5bf3e2d9d3fbb793535bd1bc826700f227564736f6c63430006000033",
  "source": "// SPDX-License-Identifier: MIT\npragma solidity >=0.6.0 <0.8.0;\n\n/// @author Jan Turk\n/// @title Administration\ncontract Administration {\n  mapping (address => bool) private registered;\n  mapping (address => mapping (address => bool)) private owners;\n  mapping (address => mapping (address => bool)) private admins;\n  mapping (address => mapping (address => bool)) private registeredUsers;\n\n  /// @notice Event to notify listeners of new contract that will use the administration\n  /// @param smartContract the contract that started using the administration\n  /// @param owner the owner of the contract \n  event NewContractRegistration(\n    address indexed smartContract,\n    address indexed owner\n  );\n\n  /// @notice Event to notify listeners of ownership trandfer of one of the contracts\n  /// @param smartContract the contract of which the ownership was transferred\n  /// @param oldOwner the old owner of the contract\n  /// @param newOwner the new owner of the contract\n  event OwnershipTransfer(\n    address indexed smartContract,\n    address indexed oldOwner,\n    address indexed newOwner\n  );\n\n  /// @notice Event to notify listeners that one of the contracts had an admin appointed\n  /// @param smartContract the contract which got new administrator appointed\n  /// @param administrator the new administrator of the contract\n  event AdministratorAppointed(\n    address indexed smartContract,\n    address indexed administrator\n  );\n\n  /// @notice Event to notify listeners that one of the contracts had an admin demoted\n  /// @param smartContract the contract which got an administrator demoted\n  /// @param administrator the administrator of the contract that got demoted\n  event AdministratorDemoted(\n    address indexed smartContract,\n    address indexed administrator\n  );\n\n  /// @notice Event to notify listeners that one of the contracts had a new user registered\n  /// @param smartContract the contract which got new user registered\n  /// @param user the new user of the contract\n  event UserRegistered(\n    address indexed smartContract,\n    address indexed user\n  );\n\n  /// @notice Event to notify listeners that one of the contracts had a user unregistered\n  /// @param smartContract the contract which got user unregistered\n  /// @param user the user of the contract that was unregistered\n  event UserUnregistered(\n    address indexed smartContract,\n    address indexed user\n  );\n\n  constructor() public {\n  }\n\n  /// @notice Checks wether the smart contract is registered in Administration\n  /// @dev Used so that the owner can be set by anyone the first time the owner is set for the contract\n  modifier onlyRegistered{\n    require(registered[msg.sender]);\n    _;\n  }\n\n  /// @notice Checks whether the caller is the owner of the contract\n  /// @param _caller The address to be checked for permissions\n  modifier onlyContractOwner(address _caller){\n    require(owners[msg.sender][_caller]);\n    _;\n  }\n\n  /// @notice Checks wether the caller is the owner or the administrator of the contract\n  /// @param _caller The address to be checked for permissions\n  modifier onlyContractAdmin(address _caller){\n    require(admins[msg.sender][_caller] || owners[msg.sender][_caller]);\n    _;\n  }\n\n  /// @notice Checks wether the caller is the owner, administrator or the registered user of the contract\n  /// @param _contract The address to be checked for permissions\n  function checkRegistrationStatus(address _contract) external view returns(bool){\n    return registered[_contract];\n  }\n\n  /// @notice Checks wether the caller is the owner\n  /// @param _tenant The address to be checked for permissions\n  /// @return Confirmation of restriction of the permissions\n  function checkOwnership(address _tenant) external view returns(bool){\n    return owners[msg.sender][_tenant];\n  }\n\n  /// @notice Checks wether the caller is the owneror  administrator  of the contract\n  /// @param _tenant The address to be checked for permissions\n  /// @return Confirmation of restriction of the permissions\n  function checkAdministatorship(address _tenant) external view returns(bool){\n    return (owners[msg.sender][_tenant] || admins[msg.sender][_tenant]);\n  }\n\n  /// @notice Checks wether the caller is the owner, administrator or the registered user of the contract\n  /// @param _tenant The address to be checked for permissions\n  /// @return Confirmation of restriction of the permissions\n  function checkRegisteredUser(address _tenant) external view returns(bool){\n    return (\n      owners[msg.sender][_tenant] ||\n      admins[msg.sender][_tenant] ||\n      registeredUsers[msg.sender][_tenant]\n    );\n  }\n\n  /// @notice Seths the owner and registered the contract to Administration\n  /// @param _initialOwner The address of the owner of the smart contract being registered\n  /// @return Confirmation of successful execution\n  function initialRegistration(address _initialOwner) external returns(bool){\n    require(!registered[msg.sender]);\n    owners[msg.sender][_initialOwner] = true;\n    registered[msg.sender] = true;\n    emit NewContractRegistration(msg.sender, _initialOwner);\n    return false;\n  }\n\n  /// @notice Transfer the ownershp of the contract\n  /// @param _caller The address that initiated the transfer of ownership\n  /// @param _newOwner The address to receive ownership of the contract\n  /// @return Confirmation of successful execution\n  function transferOwnership(\n    address _caller,\n    address _newOwner\n  )\n    external\n    onlyRegistered onlyContractOwner(_caller)\n    returns(bool)\n  {\n    owners[msg.sender][_caller] = false;\n    owners[msg.sender][_newOwner] = true;\n    emit OwnershipTransfer(msg.sender, _caller, _newOwner);\n    return true;\n  }\n\n  /// @notice Appoint admin of the contract\n  /// @param _caller The address that initiated the appointment\n  /// @param _admin The address to receive administratorship of the contract\n  /// @return Confirmation of successful execution\n  function appointAdmin(\n    address _caller,\n    address _admin\n  )\n    external\n    onlyRegistered onlyContractOwner(_caller)\n    returns(bool)\n  {\n    require(!admins[msg.sender][_admin]);\n    require(changeAdminStatus(_admin, true));\n    emit AdministratorAppointed(msg.sender, _admin);\n    return true;\n  }\n\n  /// @notice Demote admin of the contract\n  /// @param _caller The address that initiated the demotion\n  /// @param _admin The address to have administratorship of the contract revoked\n  /// @return Confirmation of successful execution\n  function demoteAdmin(\n    address _caller,\n    address _admin\n  )\n    external\n    onlyRegistered onlyContractOwner(_caller)\n    returns(bool)\n  {\n    require(admins[msg.sender][_admin]);\n    require(changeAdminStatus(_admin, false));\n    emit AdministratorDemoted(msg.sender, _admin);\n    return true;\n  }\n\n  /// @notice Register user of the contract\n  /// @param _caller The address that initiated the registration\n  /// @param _user The address to be a registered user of the contract\n  /// @return Confirmation of successful execution\n  function registerUser(\n    address _caller,\n    address _user\n  )\n    external\n    onlyRegistered onlyContractAdmin(_caller)\n    returns(bool)\n  {\n    require(!registeredUsers[msg.sender][_user]);\n    require(changeRegisteredUsers(_user, true));\n    emit UserRegistered(msg.sender, _user);\n    return true;\n  }\n\n  /// @notice Register user of the contract\n  /// @param _caller The address that initiated the registration\n  /// @param _user The address to be unregistered as a user of the contract\n  /// @return Confirmation of successful execution\n  function unregisterUser(\n    address _caller,\n    address _user\n  )\n    external\n    onlyRegistered onlyContractAdmin(_caller)\n    returns(bool)\n  {\n    require(registeredUsers[msg.sender][_user]);\n    require(changeRegisteredUsers(_user, false));\n    emit UserUnregistered(msg.sender, _user);\n    return true;\n  }\n\n  /// @notice Change state of the administrator rights\n  /// @dev This is an internal function so that the external calls coming in are easier to discern\n  /// @param _admin The address to have admin rights changed\n  /// @param _rights The bool that marks _admin as administrator or not\n  /// @return Confirmation of successful execution\n  function changeAdminStatus(address _admin, bool _rights) internal returns(bool){\n    admins[msg.sender][_admin] = _rights;\n    return true;\n  }\n\n  /// @notice Change state of the registered user rights\n  /// @dev This is an internal function so that the external calls coming in are easier to discern\n  /// @param _user The address to have user rights changed\n  /// @param _rights The bool that marks _user as registered or not\n  /// @return Confirmation of successful execution\n  function changeRegisteredUsers(address _user, bool _rights) internal returns(bool){\n    registeredUsers[msg.sender][_user] = _rights;\n    return true;\n  }\n}\n",
  "sourcePath": "/Users/janturk/Desktop/BlockchainDev/ConsensysAcademy/final-project/contracts/Administration.sol",
  "compiler": {
    "name": "solc",
    "version": "0.6.0+commit.26b70077.Emscripten.clang"
  },
  "schemaVersion": "3.3.2",
  "updatedAt": "2020-11-30T16:57:14.194Z",
  "devdoc": {
    "author": "Jan Turk",
    "methods": {
      "appointAdmin(address,address)": {
        "params": {
          "_admin": "The address to receive administratorship of the contract",
          "_caller": "The address that initiated the appointment"
        },
        "returns": {
          "_0": "Confirmation of successful execution"
        }
      },
      "checkAdministatorship(address)": {
        "params": {
          "_tenant": "The address to be checked for permissions"
        },
        "returns": {
          "_0": "Confirmation of restriction of the permissions"
        }
      },
      "checkOwnership(address)": {
        "params": {
          "_tenant": "The address to be checked for permissions"
        },
        "returns": {
          "_0": "Confirmation of restriction of the permissions"
        }
      },
      "checkRegisteredUser(address)": {
        "params": {
          "_tenant": "The address to be checked for permissions"
        },
        "returns": {
          "_0": "Confirmation of restriction of the permissions"
        }
      },
      "checkRegistrationStatus(address)": {
        "params": {
          "_contract": "The address to be checked for permissions"
        }
      },
      "demoteAdmin(address,address)": {
        "params": {
          "_admin": "The address to have administratorship of the contract revoked",
          "_caller": "The address that initiated the demotion"
        },
        "returns": {
          "_0": "Confirmation of successful execution"
        }
      },
      "initialRegistration(address)": {
        "params": {
          "_initialOwner": "The address of the owner of the smart contract being registered"
        },
        "returns": {
          "_0": "Confirmation of successful execution"
        }
      },
      "registerUser(address,address)": {
        "params": {
          "_caller": "The address that initiated the registration",
          "_user": "The address to be a registered user of the contract"
        },
        "returns": {
          "_0": "Confirmation of successful execution"
        }
      },
      "transferOwnership(address,address)": {
        "params": {
          "_caller": "The address that initiated the transfer of ownership",
          "_newOwner": "The address to receive ownership of the contract"
        },
        "returns": {
          "_0": "Confirmation of successful execution"
        }
      },
      "unregisterUser(address,address)": {
        "params": {
          "_caller": "The address that initiated the registration",
          "_user": "The address to be unregistered as a user of the contract"
        },
        "returns": {
          "_0": "Confirmation of successful execution"
        }
      }
    },
    "title": "Administration"
  },
  "userdoc": {
    "methods": {
      "appointAdmin(address,address)": {
        "notice": "Appoint admin of the contract"
      },
      "checkAdministatorship(address)": {
        "notice": "Checks wether the caller is the owneror  administrator  of the contract"
      },
      "checkOwnership(address)": {
        "notice": "Checks wether the caller is the owner"
      },
      "checkRegisteredUser(address)": {
        "notice": "Checks wether the caller is the owner, administrator or the registered user of the contract"
      },
      "checkRegistrationStatus(address)": {
        "notice": "Checks wether the caller is the owner, administrator or the registered user of the contract"
      },
      "demoteAdmin(address,address)": {
        "notice": "Demote admin of the contract"
      },
      "initialRegistration(address)": {
        "notice": "Seths the owner and registered the contract to Administration"
      },
      "registerUser(address,address)": {
        "notice": "Register user of the contract"
      },
      "transferOwnership(address,address)": {
        "notice": "Transfer the ownershp of the contract"
      },
      "unregisterUser(address,address)": {
        "notice": "Register user of the contract"
      }
    }
  }
}