{
  "contractName": "Praise",
  "abi": [
    {
      "inputs": [
        {
          "internalType": "address",
          "name": "administrationAddress",
          "type": "address"
        },
        {
          "internalType": "uint256",
          "name": "initialFirstGrowthThreshold",
          "type": "uint256"
        },
        {
          "internalType": "uint256",
          "name": "initialSecondGrowthThreshold",
          "type": "uint256"
        }
      ],
      "stateMutability": "nonpayable",
      "type": "constructor"
    },
    {
      "anonymous": false,
      "inputs": [
        {
          "indexed": false,
          "internalType": "uint256",
          "name": "newGrowthThreshold",
          "type": "uint256"
        }
      ],
      "name": "FirstGrowthThresholdUpdated",
      "type": "event"
    },
    {
      "anonymous": false,
      "inputs": [
        {
          "indexed": true,
          "internalType": "address",
          "name": "praiseGiver",
          "type": "address"
        },
        {
          "indexed": true,
          "internalType": "address",
          "name": "praiseReceiver",
          "type": "address"
        },
        {
          "indexed": false,
          "internalType": "string",
          "name": "praise",
          "type": "string"
        }
      ],
      "name": "NewPraise",
      "type": "event"
    },
    {
      "anonymous": false,
      "inputs": [
        {
          "indexed": true,
          "internalType": "address",
          "name": "user",
          "type": "address"
        }
      ],
      "name": "NewSeedling",
      "type": "event"
    },
    {
      "anonymous": false,
      "inputs": [
        {
          "indexed": true,
          "internalType": "address",
          "name": "executedBy",
          "type": "address"
        }
      ],
      "name": "OperationResumed",
      "type": "event"
    },
    {
      "anonymous": false,
      "inputs": [
        {
          "indexed": true,
          "internalType": "address",
          "name": "executedBy",
          "type": "address"
        }
      ],
      "name": "OperationStopped",
      "type": "event"
    },
    {
      "anonymous": false,
      "inputs": [
        {
          "indexed": false,
          "internalType": "uint256",
          "name": "newGrowthThreshold",
          "type": "uint256"
        }
      ],
      "name": "SecondGrowthThresholdUpdated",
      "type": "event"
    },
    {
      "anonymous": false,
      "inputs": [
        {
          "indexed": true,
          "internalType": "address",
          "name": "user",
          "type": "address"
        }
      ],
      "name": "UserGrowthToShrub",
      "type": "event"
    },
    {
      "anonymous": false,
      "inputs": [
        {
          "indexed": true,
          "internalType": "address",
          "name": "user",
          "type": "address"
        }
      ],
      "name": "UserGrowthToTree",
      "type": "event"
    },
    {
      "inputs": [],
      "name": "firstGrowth",
      "outputs": [
        {
          "internalType": "uint256",
          "name": "",
          "type": "uint256"
        }
      ],
      "stateMutability": "view",
      "type": "function"
    },
    {
      "inputs": [],
      "name": "secondGrowth",
      "outputs": [
        {
          "internalType": "uint256",
          "name": "",
          "type": "uint256"
        }
      ],
      "stateMutability": "view",
      "type": "function"
    },
    {
      "inputs": [],
      "name": "stopped",
      "outputs": [
        {
          "internalType": "bool",
          "name": "",
          "type": "bool"
        }
      ],
      "stateMutability": "view",
      "type": "function"
    },
    {
      "inputs": [
        {
          "internalType": "address",
          "name": "_user",
          "type": "address"
        }
      ],
      "name": "viewUserPraiseData",
      "outputs": [
        {
          "internalType": "uint256",
          "name": "totalNumberOfPraises",
          "type": "uint256"
        },
        {
          "internalType": "enum Praise.Stage",
          "name": "",
          "type": "uint8"
        }
      ],
      "stateMutability": "view",
      "type": "function"
    },
    {
      "inputs": [
        {
          "internalType": "address",
          "name": "_user",
          "type": "address"
        },
        {
          "internalType": "uint256",
          "name": "_praiseId",
          "type": "uint256"
        }
      ],
      "name": "viewPraise",
      "outputs": [
        {
          "internalType": "address",
          "name": "praiseGiver",
          "type": "address"
        },
        {
          "internalType": "string",
          "name": "praise",
          "type": "string"
        }
      ],
      "stateMutability": "view",
      "type": "function"
    },
    {
      "inputs": [],
      "name": "emergencyStop",
      "outputs": [
        {
          "internalType": "bool",
          "name": "",
          "type": "bool"
        }
      ],
      "stateMutability": "nonpayable",
      "type": "function"
    },
    {
      "inputs": [],
      "name": "resumeOperation",
      "outputs": [
        {
          "internalType": "bool",
          "name": "",
          "type": "bool"
        }
      ],
      "stateMutability": "nonpayable",
      "type": "function"
    },
    {
      "inputs": [
        {
          "internalType": "address",
          "name": "_newOwner",
          "type": "address"
        }
      ],
      "name": "transferOwnership",
      "outputs": [
        {
          "internalType": "bool",
          "name": "",
          "type": "bool"
        }
      ],
      "stateMutability": "nonpayable",
      "type": "function"
    },
    {
      "inputs": [
        {
          "internalType": "address",
          "name": "_admin",
          "type": "address"
        }
      ],
      "name": "appointAdmin",
      "outputs": [
        {
          "internalType": "bool",
          "name": "",
          "type": "bool"
        }
      ],
      "stateMutability": "nonpayable",
      "type": "function"
    },
    {
      "inputs": [
        {
          "internalType": "address",
          "name": "_admin",
          "type": "address"
        }
      ],
      "name": "demoteAdmin",
      "outputs": [
        {
          "internalType": "bool",
          "name": "",
          "type": "bool"
        }
      ],
      "stateMutability": "nonpayable",
      "type": "function"
    },
    {
      "inputs": [
        {
          "internalType": "address",
          "name": "_user",
          "type": "address"
        }
      ],
      "name": "registerUser",
      "outputs": [
        {
          "internalType": "bool",
          "name": "",
          "type": "bool"
        }
      ],
      "stateMutability": "nonpayable",
      "type": "function"
    },
    {
      "inputs": [
        {
          "internalType": "address",
          "name": "_user",
          "type": "address"
        }
      ],
      "name": "unregisterUser",
      "outputs": [
        {
          "internalType": "bool",
          "name": "",
          "type": "bool"
        }
      ],
      "stateMutability": "nonpayable",
      "type": "function"
    },
    {
      "inputs": [
        {
          "internalType": "uint256",
          "name": "_firstGrowth",
          "type": "uint256"
        },
        {
          "internalType": "uint256",
          "name": "_secondGrowth",
          "type": "uint256"
        }
      ],
      "name": "setGrowthThresholds",
      "outputs": [
        {
          "internalType": "bool",
          "name": "",
          "type": "bool"
        }
      ],
      "stateMutability": "nonpayable",
      "type": "function"
    },
    {
      "inputs": [
        {
          "internalType": "address",
          "name": "_user",
          "type": "address"
        }
      ],
      "name": "forceUpdateOfUserStage",
      "outputs": [
        {
          "internalType": "bool",
          "name": "",
          "type": "bool"
        }
      ],
      "stateMutability": "nonpayable",
      "type": "function"
    },
    {
      "inputs": [
        {
          "internalType": "address",
          "name": "_user",
          "type": "address"
        },
        {
          "internalType": "string",
          "name": "_praise",
          "type": "string"
        }
      ],
      "name": "givePraise",
      "outputs": [
        {
          "internalType": "bool",
          "name": "",
          "type": "bool"
        }
      ],
      "stateMutability": "nonpayable",
      "type": "function"
    }
  ],
  "bytecode": "0x608060405234801561001057600080fd5b506040516123bc3803806123bc8339818101604052606081101561003357600080fd5b81019080805190602001909291908051906020019092919080519060200190929190505050826000806101000a81548173ffffffffffffffffffffffffffffffffffffffff021916908373ffffffffffffffffffffffffffffffffffffffff1602179055506000809054906101000a900473ffffffffffffffffffffffffffffffffffffffff1673ffffffffffffffffffffffffffffffffffffffff1663d9d554c8336040518263ffffffff1660e01b8152600401808273ffffffffffffffffffffffffffffffffffffffff1673ffffffffffffffffffffffffffffffffffffffff168152602001915050602060405180830381600087803b15801561013857600080fd5b505af115801561014c573d6000803e3d6000fd5b505050506040513d602081101561016257600080fd5b8101908080519060200190929190505050508160018190555080600281905550505050612228806101946000396000f3fe608060405234801561001057600080fd5b50600436106100f55760003560e01c80639823566311610097578063bcd982ef11610066578063bcd982ef1461046c578063ca589ee814610566578063df698fc9146105b6578063f2fde38b14610612576100f5565b80639823566314610329578063a538b2ac14610385578063a53daeff146103f2578063b24304461461044e576100f5565b80634b2851ae116100d35780634b2851ae146102a557806363a599a4146102c757806375f12b21146102e95780637d87cacc1461030b576100f5565b80632199d5cd146100fa57806321f2ca3b14610156578063373d200a146101b2575b600080fd5b61013c6004803603602081101561011057600080fd5b81019080803573ffffffffffffffffffffffffffffffffffffffff16906020019092919050505061066e565b604051808215151515815260200191505060405180910390f35b6101986004803603602081101561016c57600080fd5b81019080803573ffffffffffffffffffffffffffffffffffffffff169060200190929190505050610966565b604051808215151515815260200191505060405180910390f35b61028b600480360360408110156101c857600080fd5b81019080803573ffffffffffffffffffffffffffffffffffffffff1690602001909291908035906020019064010000000081111561020557600080fd5b82018360208201111561021757600080fd5b8035906020019184600183028401116401000000008311171561023957600080fd5b91908080601f016020809104026020016040519081016040528093929190818152602001838380828437600081840152601f19601f820116905080830192505050505050509192919290505050610b6b565b604051808215151515815260200191505060405180910390f35b6102ad61108a565b604051808215151515815260200191505060405180910390f35b6102cf61119e565b604051808215151515815260200191505060405180910390f35b6102f16112b3565b604051808215151515815260200191505060405180910390f35b6103136112c6565b6040518082815260200191505060405180910390f35b61036b6004803603602081101561033f57600080fd5b81019080803573ffffffffffffffffffffffffffffffffffffffff1690602001909291905050506112cc565b604051808215151515815260200191505060405180910390f35b6103c76004803603602081101561039b57600080fd5b81019080803573ffffffffffffffffffffffffffffffffffffffff1690602001909291905050506114d1565b604051808381526020018260028111156103dd57fe5b60ff1681526020019250505060405180910390f35b6104346004803603602081101561040857600080fd5b81019080803573ffffffffffffffffffffffffffffffffffffffff169060200190929190505050611570565b604051808215151515815260200191505060405180910390f35b61045661166f565b6040518082815260200191505060405180910390f35b6104b86004803603604081101561048257600080fd5b81019080803573ffffffffffffffffffffffffffffffffffffffff16906020019092919080359060200190929190505050611675565b604051808373ffffffffffffffffffffffffffffffffffffffff1673ffffffffffffffffffffffffffffffffffffffff16815260200180602001828103825283818151815260200191508051906020019080838360005b8381101561052a57808201518184015260208101905061050f565b50505050905090810190601f1680156105575780820380516001836020036101000a031916815260200191505b50935050505060405180910390f35b61059c6004803603604081101561057c57600080fd5b8101908080359060200190929190803590602001909291905050506117ed565b604051808215151515815260200191505060405180910390f35b6105f8600480360360208110156105cc57600080fd5b81019080803573ffffffffffffffffffffffffffffffffffffffff1690602001909291905050506119ad565b604051808215151515815260200191505060405180910390f35b6106546004803603602081101561062857600080fd5b81019080803573ffffffffffffffffffffffffffffffffffffffff169060200190929190505050611bb2565b604051808215151515815260200191505060405180910390f35b60008060009054906101000a900473ffffffffffffffffffffffffffffffffffffffff1673ffffffffffffffffffffffffffffffffffffffff166376e4931d336040518263ffffffff1660e01b8152600401808273ffffffffffffffffffffffffffffffffffffffff1673ffffffffffffffffffffffffffffffffffffffff16815260200191505060206040518083038186803b15801561070e57600080fd5b505afa158015610722573d6000803e3d6000fd5b505050506040513d602081101561073857600080fd5b810190808051906020019092919050505061075257600080fd5b6000809054906101000a900473ffffffffffffffffffffffffffffffffffffffff1673ffffffffffffffffffffffffffffffffffffffff16630354adb233846040518363ffffffff1660e01b8152600401808373ffffffffffffffffffffffffffffffffffffffff1673ffffffffffffffffffffffffffffffffffffffff1681526020018273ffffffffffffffffffffffffffffffffffffffff1673ffffffffffffffffffffffffffffffffffffffff16815260200192505050602060405180830381600087803b15801561082657600080fd5b505af115801561083a573d6000803e3d6000fd5b505050506040513d602081101561085057600080fd5b810190808051906020019092919050505061086a57600080fd5b6000600360008473ffffffffffffffffffffffffffffffffffffffff1673ffffffffffffffffffffffffffffffffffffffff16815260200190815260200160002060000154141561095d576000600360008473ffffffffffffffffffffffffffffffffffffffff1673ffffffffffffffffffffffffffffffffffffffff16815260200190815260200160002060010160006101000a81548160ff0219169083600281111561091457fe5b02179055508173ffffffffffffffffffffffffffffffffffffffff167f5a53641e4a5b6f99d6ca380e4b9ac704a23d9058c6e6b7a1e569a03883cee61f60405160405180910390a25b60019050919050565b60008060009054906101000a900473ffffffffffffffffffffffffffffffffffffffff1673ffffffffffffffffffffffffffffffffffffffff166376e4931d336040518263ffffffff1660e01b8152600401808273ffffffffffffffffffffffffffffffffffffffff1673ffffffffffffffffffffffffffffffffffffffff16815260200191505060206040518083038186803b158015610a0657600080fd5b505afa158015610a1a573d6000803e3d6000fd5b505050506040513d6020811015610a3057600080fd5b8101908080519060200190929190505050610a4a57600080fd5b6000809054906101000a900473ffffffffffffffffffffffffffffffffffffffff1673ffffffffffffffffffffffffffffffffffffffff16635cb318bf33846040518363ffffffff1660e01b8152600401808373ffffffffffffffffffffffffffffffffffffffff1673ffffffffffffffffffffffffffffffffffffffff1681526020018273ffffffffffffffffffffffffffffffffffffffff1673ffffffffffffffffffffffffffffffffffffffff16815260200192505050602060405180830381600087803b158015610b1e57600080fd5b505af1158015610b32573d6000803e3d6000fd5b505050506040513d6020811015610b4857600080fd5b8101908080519060200190929190505050610b6257600080fd5b60019050919050565b60008060009054906101000a900473ffffffffffffffffffffffffffffffffffffffff1673ffffffffffffffffffffffffffffffffffffffff1663221c053f336040518263ffffffff1660e01b8152600401808273ffffffffffffffffffffffffffffffffffffffff1673ffffffffffffffffffffffffffffffffffffffff16815260200191505060206040518083038186803b158015610c0b57600080fd5b505afa158015610c1f573d6000803e3d6000fd5b505050506040513d6020811015610c3557600080fd5b8101908080519060200190929190505050610c4f57600080fd5b600060149054906101000a900460ff1615610c6957600080fd5b8273ffffffffffffffffffffffffffffffffffffffff163373ffffffffffffffffffffffffffffffffffffffff161415610ca257600080fd5b6000809054906101000a900473ffffffffffffffffffffffffffffffffffffffff1673ffffffffffffffffffffffffffffffffffffffff1663221c053f846040518263ffffffff1660e01b8152600401808273ffffffffffffffffffffffffffffffffffffffff1673ffffffffffffffffffffffffffffffffffffffff16815260200191505060206040518083038186803b158015610d4057600080fd5b505afa158015610d54573d6000803e3d6000fd5b505050506040513d6020811015610d6a57600080fd5b8101908080519060200190929190505050610d8457600080fd5b33600360008573ffffffffffffffffffffffffffffffffffffffff1673ffffffffffffffffffffffffffffffffffffffff1681526020019081526020016000206002016000600360008773ffffffffffffffffffffffffffffffffffffffff1673ffffffffffffffffffffffffffffffffffffffff16815260200190815260200160002060000154815260200190815260200160002060000160006101000a81548173ffffffffffffffffffffffffffffffffffffffff021916908373ffffffffffffffffffffffffffffffffffffffff16021790555081600360008573ffffffffffffffffffffffffffffffffffffffff1673ffffffffffffffffffffffffffffffffffffffff1681526020019081526020016000206002016000600360008773ffffffffffffffffffffffffffffffffffffffff1673ffffffffffffffffffffffffffffffffffffffff1681526020019081526020016000206000015481526020019081526020016000206001019080519060200190610f0792919061214d565b50610f5e6001600360008673ffffffffffffffffffffffffffffffffffffffff1673ffffffffffffffffffffffffffffffffffffffff16815260200190815260200160002060000154611db790919063ffffffff16565b600360008573ffffffffffffffffffffffffffffffffffffffff1673ffffffffffffffffffffffffffffffffffffffff168152602001908152602001600020600001819055508273ffffffffffffffffffffffffffffffffffffffff163373ffffffffffffffffffffffffffffffffffffffff167f465a70857d3921df537205edf1b38d9729debc096a51e3fc59d5501c3cbb17f6846040518080602001828103825283818151815260200191508051906020019080838360005b83811015611034578082015181840152602081019050611019565b50505050905090810190601f1680156110615780820380516001836020036101000a031916815260200191505b509250505060405180910390a361107783611e3f565b61108057600080fd5b6001905092915050565b60008060149054906101000a900460ff166110a457600080fd5b6000809054906101000a900473ffffffffffffffffffffffffffffffffffffffff1673ffffffffffffffffffffffffffffffffffffffff166376e4931d336040518263ffffffff1660e01b8152600401808273ffffffffffffffffffffffffffffffffffffffff1673ffffffffffffffffffffffffffffffffffffffff16815260200191505060206040518083038186803b15801561114257600080fd5b505afa158015611156573d6000803e3d6000fd5b505050506040513d602081101561116c57600080fd5b810190808051906020019092919050505061118657600080fd5b61118e61211b565b61119757600080fd5b6001905090565b60008060149054906101000a900460ff16156111b957600080fd5b6000809054906101000a900473ffffffffffffffffffffffffffffffffffffffff1673ffffffffffffffffffffffffffffffffffffffff166376e4931d336040518263ffffffff1660e01b8152600401808273ffffffffffffffffffffffffffffffffffffffff1673ffffffffffffffffffffffffffffffffffffffff16815260200191505060206040518083038186803b15801561125757600080fd5b505afa15801561126b573d6000803e3d6000fd5b505050506040513d602081101561128157600080fd5b810190808051906020019092919050505061129b57600080fd5b6112a361211b565b6112ac57600080fd5b6001905090565b600060149054906101000a900460ff1681565b60015481565b60008060009054906101000a900473ffffffffffffffffffffffffffffffffffffffff1673ffffffffffffffffffffffffffffffffffffffff16630c8b234e336040518263ffffffff1660e01b8152600401808273ffffffffffffffffffffffffffffffffffffffff1673ffffffffffffffffffffffffffffffffffffffff16815260200191505060206040518083038186803b15801561136c57600080fd5b505afa158015611380573d6000803e3d6000fd5b505050506040513d602081101561139657600080fd5b81019080805190602001909291905050506113b057600080fd5b6000809054906101000a900473ffffffffffffffffffffffffffffffffffffffff1673ffffffffffffffffffffffffffffffffffffffff1663d330724733846040518363ffffffff1660e01b8152600401808373ffffffffffffffffffffffffffffffffffffffff1673ffffffffffffffffffffffffffffffffffffffff1681526020018273ffffffffffffffffffffffffffffffffffffffff1673ffffffffffffffffffffffffffffffffffffffff16815260200192505050602060405180830381600087803b15801561148457600080fd5b505af1158015611498573d6000803e3d6000fd5b505050506040513d60208110156114ae57600080fd5b81019080805190602001909291905050506114c857600080fd5b60019050919050565b600080600360008473ffffffffffffffffffffffffffffffffffffffff1673ffffffffffffffffffffffffffffffffffffffff16815260200190815260200160002060000154600360008573ffffffffffffffffffffffffffffffffffffffff1673ffffffffffffffffffffffffffffffffffffffff16815260200190815260200160002060010160009054906101000a900460ff1691509150915091565b60008060009054906101000a900473ffffffffffffffffffffffffffffffffffffffff1673ffffffffffffffffffffffffffffffffffffffff166376e4931d336040518263ffffffff1660e01b8152600401808273ffffffffffffffffffffffffffffffffffffffff1673ffffffffffffffffffffffffffffffffffffffff16815260200191505060206040518083038186803b15801561161057600080fd5b505afa158015611624573d6000803e3d6000fd5b505050506040513d602081101561163a57600080fd5b810190808051906020019092919050505061165457600080fd5b61165d82611e3f565b61166657600080fd5b60019050919050565b60025481565b60006060600360008573ffffffffffffffffffffffffffffffffffffffff1673ffffffffffffffffffffffffffffffffffffffff168152602001908152602001600020600201600084815260200190815260200160002060000160009054906101000a900473ffffffffffffffffffffffffffffffffffffffff16600360008673ffffffffffffffffffffffffffffffffffffffff1673ffffffffffffffffffffffffffffffffffffffff1681526020019081526020016000206002016000858152602001908152602001600020600101808054600181600116156101000203166002900480601f0160208091040260200160405190810160405280929190818152602001828054600181600116156101000203166002900480156117db5780601f106117b0576101008083540402835291602001916117db565b820191906000526020600020905b8154815290600101906020018083116117be57829003601f168201915b50505050509050915091509250929050565b60008060009054906101000a900473ffffffffffffffffffffffffffffffffffffffff1673ffffffffffffffffffffffffffffffffffffffff166376e4931d336040518263ffffffff1660e01b8152600401808273ffffffffffffffffffffffffffffffffffffffff1673ffffffffffffffffffffffffffffffffffffffff16815260200191505060206040518083038186803b15801561188d57600080fd5b505afa1580156118a1573d6000803e3d6000fd5b505050506040513d60208110156118b757600080fd5b81019080805190602001909291905050506118d157600080fd5b828211806118ec57506000821480156118eb575060025483105b5b6118f557600080fd5b6000831415801561190857506001548314155b1561194c57826001819055507fa9c4bcbd445e52e3d48afc52f8ef5e0d49f124efeb172913532308abaed678dd836040518082815260200191505060405180910390a15b6000821415801561195f57506002548214155b156119a357816002819055507f88a22a19bdf7df99ac9fbede692cb44b9c6fa7879a04858c97cf04e744570d91826040518082815260200191505060405180910390a15b6001905092915050565b60008060009054906101000a900473ffffffffffffffffffffffffffffffffffffffff1673ffffffffffffffffffffffffffffffffffffffff16630c8b234e336040518263ffffffff1660e01b8152600401808273ffffffffffffffffffffffffffffffffffffffff1673ffffffffffffffffffffffffffffffffffffffff16815260200191505060206040518083038186803b158015611a4d57600080fd5b505afa158015611a61573d6000803e3d6000fd5b505050506040513d6020811015611a7757600080fd5b8101908080519060200190929190505050611a9157600080fd5b6000809054906101000a900473ffffffffffffffffffffffffffffffffffffffff1673ffffffffffffffffffffffffffffffffffffffff16631fdac06b33846040518363ffffffff1660e01b8152600401808373ffffffffffffffffffffffffffffffffffffffff1673ffffffffffffffffffffffffffffffffffffffff1681526020018273ffffffffffffffffffffffffffffffffffffffff1673ffffffffffffffffffffffffffffffffffffffff16815260200192505050602060405180830381600087803b158015611b6557600080fd5b505af1158015611b79573d6000803e3d6000fd5b505050506040513d6020811015611b8f57600080fd5b8101908080519060200190929190505050611ba957600080fd5b60019050919050565b60008060009054906101000a900473ffffffffffffffffffffffffffffffffffffffff1673ffffffffffffffffffffffffffffffffffffffff16630c8b234e336040518263ffffffff1660e01b8152600401808273ffffffffffffffffffffffffffffffffffffffff1673ffffffffffffffffffffffffffffffffffffffff16815260200191505060206040518083038186803b158015611c5257600080fd5b505afa158015611c66573d6000803e3d6000fd5b505050506040513d6020811015611c7c57600080fd5b8101908080519060200190929190505050611c9657600080fd5b6000809054906101000a900473ffffffffffffffffffffffffffffffffffffffff1673ffffffffffffffffffffffffffffffffffffffff16636d43542133846040518363ffffffff1660e01b8152600401808373ffffffffffffffffffffffffffffffffffffffff1673ffffffffffffffffffffffffffffffffffffffff1681526020018273ffffffffffffffffffffffffffffffffffffffff1673ffffffffffffffffffffffffffffffffffffffff16815260200192505050602060405180830381600087803b158015611d6a57600080fd5b505af1158015611d7e573d6000803e3d6000fd5b505050506040513d6020811015611d9457600080fd5b8101908080519060200190929190505050611dae57600080fd5b60019050919050565b600080828401905083811015611e35576040517f08c379a000000000000000000000000000000000000000000000000000000000815260040180806020018281038252601b8152602001807f536166654d6174683a206164646974696f6e206f766572666c6f77000000000081525060200191505060405180910390fd5b8091505092915050565b600060016002811115611e4e57fe5b600360008473ffffffffffffffffffffffffffffffffffffffff1673ffffffffffffffffffffffffffffffffffffffff16815260200190815260200160002060010160009054906101000a900460ff166002811115611ea957fe5b148015611efa5750600254600360008473ffffffffffffffffffffffffffffffffffffffff1673ffffffffffffffffffffffffffffffffffffffff1681526020019081526020016000206000015410155b15611fab576002600360008473ffffffffffffffffffffffffffffffffffffffff1673ffffffffffffffffffffffffffffffffffffffff16815260200190815260200160002060010160006101000a81548160ff02191690836002811115611f5e57fe5b02179055508173ffffffffffffffffffffffffffffffffffffffff167f0e33bedda69885c59c83ef63bb3816e181c4e701b343fb560bfb71c2080f705960405160405180910390a2612112565b60006002811115611fb857fe5b600360008473ffffffffffffffffffffffffffffffffffffffff1673ffffffffffffffffffffffffffffffffffffffff16815260200190815260200160002060010160009054906101000a900460ff16600281111561201357fe5b1480156120645750600154600360008473ffffffffffffffffffffffffffffffffffffffff1673ffffffffffffffffffffffffffffffffffffffff1681526020019081526020016000206000015410155b15612111576001600360008473ffffffffffffffffffffffffffffffffffffffff1673ffffffffffffffffffffffffffffffffffffffff16815260200190815260200160002060010160006101000a81548160ff021916908360028111156120c857fe5b02179055508173ffffffffffffffffffffffffffffffffffffffff167fe201456d4d7544b2b32a7cc7e2ca516c8c375062bac0a0d717d89d3a3add1fc860405160405180910390a25b5b60019050919050565b60008060149054906101000a900460ff1615600060146101000a81548160ff0219169083151502179055506001905090565b828054600181600116156101000203166002900490600052602060002090601f016020900481019282601f1061218e57805160ff19168380011785556121bc565b828001600101855582156121bc579182015b828111156121bb5782518255916020019190600101906121a0565b5b5090506121c991906121cd565b5090565b6121ef91905b808211156121eb5760008160009055506001016121d3565b5090565b9056fea26469706673582212204b6ecc73e77ad9f084c1319977dcca0e647ec2ec38ae1de019bfd21d7c0de34164736f6c63430006000033",
  "source": "// SPDX-License-Identifier: MIT\npragma solidity >=0.6.0 <0.8.0;\n\nimport './Administration.sol';\nimport '@openzeppelin/contracts/math/SafeMath.sol';\n\n/// @author Jan Turk\n/// @title Praise\ncontract Praise{\n  using SafeMath for uint256;\n\n  Administration administration;\n\n  bool public stopped;\n  uint256 public firstGrowth;\n  uint256 public secondGrowth;\n\n  mapping (address => Users) users;\n\n  enum Stage { Seedling, Shrub, Tree }\n\n  struct Users{\n    uint256 totalNumberOfPraises;\n    Stage stage;\n    mapping (uint256 => Praises) praises;\n  }\n\n  struct Praises{\n    address praiseGiver;\n    string praise;\n  }\n\n  /// @notice Event to notify that operation has been stopped\n  /// @param executedBy the address of the admin that executed the pause of operation\n  event OperationStopped(address indexed executedBy);\n\n  /// @notice Event to notify that operation has been resumed\n  /// @param executedBy the address of the admin that executed the resumal of operation\n  event OperationResumed(address indexed executedBy);\n\n  /// @notice Event to notify that first growth threshold has been updated\n  /// @param newGrowthThreshold new growth threshold value\n  event FirstGrowthThresholdUpdated(uint256 newGrowthThreshold);\n\n  /// @notice Event to notify that second growth threshold has been updated\n  /// @param newGrowthThreshold new growth threshold value\n  event SecondGrowthThresholdUpdated(uint256 newGrowthThreshold);\n\n  /// @notice Event to notify that new user has reached Seedling state\n  /// @param user user that reached the state\n  event NewSeedling(address indexed user);\n\n  /// @notice Event to notify that new user has reached Shrub state\n  /// @param user user that reached the state\n  event UserGrowthToShrub(address indexed user);\n\n  /// @notice Event to notify that new user has reached Tree state\n  /// @param user user that reached the state\n  event UserGrowthToTree(address indexed user);\n\n  /// @notice Event to notify that new praise has been issued\n  /// @param praiseGiver user that gave the praise\n  /// @param praiseReceiver user that received the praise\n  /// @param praise praise that was given\n  event NewPraise(address indexed praiseGiver, address indexed praiseReceiver, string praise);\n\n  /// @notice only allows execution it the contract isn't stopped\n  modifier onlyWhenOperational{\n    require(!stopped);\n    _;\n  }\n\n  /// @notice only allows execution it the contract is stopped\n  modifier onlyWhenStopped{\n    require(stopped);\n    _;\n  }\n\n  /// @notice only allows execution it the caller is contract owner\n  modifier onlyOwner{\n    require(administration.checkOwnership(msg.sender));\n    _;\n  }\n\n  /// @notice only allows execution it the caller is contract owner or admin\n  modifier onlyAdmin{\n    require(administration.checkAdministatorship(msg.sender));\n    _;\n  }\n\n  /// @notice only allows execution it the caller is contract owner, admin or registered user\n  modifier onlyRegisteredUser{\n    require(administration.checkRegisteredUser(msg.sender));\n    _;\n  }\n\n  /// @notice constructor of the smart contract\n  /// @param administrationAddress address of the Administration smart contract\n  /// @param initialFirstGrowthThreshold value of the initial first growth threshold\n  /// @param initialSecondGrowthThreshold value of the initial second growth threshold\n  constructor (\n    address administrationAddress,\n    uint256 initialFirstGrowthThreshold,\n    uint256 initialSecondGrowthThreshold\n  )\n    public\n  {\n    administration = Administration(administrationAddress);\n    administration.initialRegistration(msg.sender);\n    firstGrowth = initialFirstGrowthThreshold;\n    secondGrowth = initialSecondGrowthThreshold;\n  }\n\n  /// @notice used to view user praise data\n  /// @param _user address of the user whoose data we are looking at\n  /// @return totalNumberOfPraises number of praises that the user received\n  /// @return Stage stage that the user reached\n  function viewUserPraiseData(\n    address _user\n  )\n    public view\n    returns(\n      uint256 totalNumberOfPraises,\n      Stage\n    )\n  {\n    return(\n      users[_user].totalNumberOfPraises,\n      users[_user].stage\n    );\n  }\n\n  /// @notice used to view user's praise\n  /// @param _user address of the user whoose data we are looking at\n  /// @param _praiseId ID of the praise we are retrieving\n  /// @return praiseGiver user that gave praise\n  /// @return praise text explaining the praise\n  function viewPraise(\n    address _user,\n    uint256 _praiseId\n  )\n    public view\n    returns(\n      address praiseGiver,\n      string memory praise\n    )\n  {\n    return(\n      users[_user].praises[_praiseId].praiseGiver,\n      users[_user].praises[_praiseId].praise\n    );\n  }\n\n  /// @notice used to stop the operation of the contract\n  /// @return successful execution of the function\n  function emergencyStop() public onlyWhenOperational onlyAdmin returns(bool){\n    require(toggleOperation());\n    return true;\n  }\n\n  /// @notice used to resume the operation of the contract\n  /// @return successful execution of the function\n  function resumeOperation() public onlyWhenStopped onlyAdmin returns(bool){\n    require(toggleOperation());\n    return true;\n  }\n\n  /// @notice used to transfer ownership of the contract\n  /// @param _newOwner address to receive the ownership of the contract\n  /// @return successful executipn of the contract\n  function transferOwnership(address _newOwner) public onlyOwner returns(bool){\n    require(administration.transferOwnership(msg.sender, _newOwner));\n    return true;\n  }\n\n  /// @notice used to appoin administrator of the contract\n  /// @param _admin address to receive the administratorship of the contract\n  /// @return successful executipn of the contract\n  function appointAdmin(address _admin) public onlyOwner returns(bool){\n    require(administration.appointAdmin(msg.sender, _admin));\n    return true;\n  }\n\n  /// @notice used to demote administrator of the contract\n  /// @param _admin address to have the administratorship of the contract revoked\n  /// @return successful executipn of the contract\n  function demoteAdmin(address _admin) public onlyOwner returns(bool){\n    require(administration.demoteAdmin(msg.sender, _admin));\n    return true;\n  }\n\n  /// @notice used to register user of the contract\n  /// @param _user address to receive the registered user rights of the contract\n  /// @return successful executipn of the contract\n  function registerUser(address _user) public onlyAdmin returns(bool){\n    require(administration.registerUser(msg.sender, _user));\n    if(users[_user].totalNumberOfPraises == 0){\n      users[_user].stage = Stage.Seedling;\n      emit NewSeedling(_user);\n    }\n    return true;\n  }\n\n  /// @notice used to unregister user of the contract\n  /// @param _user address to loose the registered user rights of the contract\n  /// @return successful executipn of the contract\n  function unregisterUser(address _user) public onlyAdmin returns(bool){\n    require(administration.unregisterUser(msg.sender, _user));\n    return true;\n  }\n\n  /// @notice used to set new growth thresholds\n  /// @dev if input value is set to 0, then the threshold value is not updated\n  /// @param _firstGrowth value to be set for first growth threshold\n  /// @param _secondGrowth value to be set for second growth threshold\n  /// @return successful execution of the contract\n  function setGrowthThresholds(\n    uint256 _firstGrowth,\n    uint256 _secondGrowth\n  )\n    public\n    onlyAdmin\n    returns(bool)\n  {\n    require(\n      _secondGrowth > _firstGrowth || (_secondGrowth == 0 && _firstGrowth < secondGrowth)\n    );\n    if(_firstGrowth != 0 && _firstGrowth != firstGrowth){\n      firstGrowth = _firstGrowth;\n      emit FirstGrowthThresholdUpdated(_firstGrowth);\n    }\n    if(_secondGrowth != 0 && _secondGrowth != secondGrowth){\n      secondGrowth = _secondGrowth;\n      emit SecondGrowthThresholdUpdated(_secondGrowth);\n    }\n    return true;\n  }\n\n  /// @notice used to force the update od the stage of the user is the growth params have been changed and the user stage should be higher\n  /// @param _user address that has to have stage updated\n  /// @return successful execution of the function\n  function forceUpdateOfUserStage(address _user) public onlyAdmin returns(bool){\n    require(updateUserStage(_user));\n    return true;\n  }\n\n  /// @notice used to give praise from one user to another\n  /// @dev user can not give praise to self\n  /// @dev usregistered users can not receive or give praises\n  /// @param _user address to receive praise\n  /// @param _praise text explaining the praise\n  /// @return successful execution of the contract\n  function givePraise(\n    address _user,\n    string memory _praise\n  )\n    public\n    onlyRegisteredUser onlyWhenOperational\n    returns(bool)\n  {\n    require(msg.sender != _user);\n    require(administration.checkRegisteredUser(_user));\n    users[_user].praises[users[_user].totalNumberOfPraises].praiseGiver = msg.sender;\n    users[_user].praises[users[_user].totalNumberOfPraises].praise = _praise;\n    users[_user].totalNumberOfPraises = users[_user].totalNumberOfPraises.add(1);\n    emit NewPraise(msg.sender, _user, _praise);\n    require(updateUserStage(_user));\n    return true;\n  }\n\n  /// @notice toggles the operation stage of the contract\n  /// @return successful execution of the contract\n  function toggleOperation() internal returns(bool){\n    stopped = !stopped;\n    return true;\n  }\n\n  /// @notice used to update the stage of the user\n  /// @dev this is used in multiple other functions and should just ignore users that do not require stage update\n  /// @param _user address that is being checked for stage update\n  /// @return successful execution of the function\n  function updateUserStage(address _user) internal returns(bool){\n    if(users[_user].stage == Stage.Shrub && users[_user].totalNumberOfPraises >= secondGrowth){\n      users[_user].stage = Stage.Tree;\n      emit UserGrowthToTree(_user);\n    }\n    else if(\n      users[_user].stage == Stage.Seedling && users[_user].totalNumberOfPraises >= firstGrowth\n    )\n    {\n      users[_user].stage = Stage.Shrub;\n      emit UserGrowthToShrub(_user);\n    }\n    return true;\n  }\n}\n",
  "sourcePath": "/Users/janturk/Desktop/BlockchainDev/ConsensysAcademy/final-project/contracts/Praise.sol",
  "compiler": {
    "name": "solc",
    "version": "0.6.0+commit.26b70077.Emscripten.clang"
  },
  "schemaVersion": "3.3.2",
  "updatedAt": "2020-11-30T16:57:14.206Z",
  "devdoc": {
    "author": "Jan Turk",
    "methods": {
      "appointAdmin(address)": {
        "params": {
          "_admin": "address to receive the administratorship of the contract"
        },
        "returns": {
          "_0": "successful executipn of the contract"
        }
      },
      "constructor": {
        "params": {
          "administrationAddress": "address of the Administration smart contract",
          "initialFirstGrowthThreshold": "value of the initial first growth threshold",
          "initialSecondGrowthThreshold": "value of the initial second growth threshold"
        }
      },
      "demoteAdmin(address)": {
        "params": {
          "_admin": "address to have the administratorship of the contract revoked"
        },
        "returns": {
          "_0": "successful executipn of the contract"
        }
      },
      "forceUpdateOfUserStage(address)": {
        "params": {
          "_user": "address that has to have stage updated"
        },
        "returns": {
          "_0": "successful execution of the function"
        }
      },
      "givePraise(address,string)": {
        "details": "user can not give praise to selfusregistered users can not receive or give praises",
        "params": {
          "_praise": "text explaining the praise",
          "_user": "address to receive praise"
        },
        "returns": {
          "_0": "successful execution of the contract"
        }
      },
      "registerUser(address)": {
        "params": {
          "_user": "address to receive the registered user rights of the contract"
        },
        "returns": {
          "_0": "successful executipn of the contract"
        }
      },
      "setGrowthThresholds(uint256,uint256)": {
        "details": "if input value is set to 0, then the threshold value is not updated",
        "params": {
          "_firstGrowth": "value to be set for first growth threshold",
          "_secondGrowth": "value to be set for second growth threshold"
        },
        "returns": {
          "_0": "successful execution of the contract"
        }
      },
      "transferOwnership(address)": {
        "params": {
          "_newOwner": "address to receive the ownership of the contract"
        },
        "returns": {
          "_0": "successful executipn of the contract"
        }
      },
      "unregisterUser(address)": {
        "params": {
          "_user": "address to loose the registered user rights of the contract"
        },
        "returns": {
          "_0": "successful executipn of the contract"
        }
      },
      "viewPraise(address,uint256)": {
        "params": {
          "_praiseId": "ID of the praise we are retrieving",
          "_user": "address of the user whoose data we are looking at"
        },
        "returns": {
          "praise": "text explaining the praise",
          "praiseGiver": "user that gave praise"
        }
      },
      "viewUserPraiseData(address)": {
        "params": {
          "_user": "address of the user whoose data we are looking at"
        },
        "returns": {
          "_1": "Stage stage that the user reached",
          "totalNumberOfPraises": "number of praises that the user received"
        }
      }
    },
    "title": "Praise"
  },
  "userdoc": {
    "methods": {
      "appointAdmin(address)": {
        "notice": "used to appoin administrator of the contract"
      },
      "constructor": "constructor of the smart contract",
      "demoteAdmin(address)": {
        "notice": "used to demote administrator of the contract"
      },
      "emergencyStop()": {
        "notice": "used to stop the operation of the contract"
      },
      "forceUpdateOfUserStage(address)": {
        "notice": "used to force the update od the stage of the user is the growth params have been changed and the user stage should be higher"
      },
      "givePraise(address,string)": {
        "notice": "used to give praise from one user to another"
      },
      "registerUser(address)": {
        "notice": "used to register user of the contract"
      },
      "resumeOperation()": {
        "notice": "used to resume the operation of the contract"
      },
      "setGrowthThresholds(uint256,uint256)": {
        "notice": "used to set new growth thresholds"
      },
      "transferOwnership(address)": {
        "notice": "used to transfer ownership of the contract"
      },
      "unregisterUser(address)": {
        "notice": "used to unregister user of the contract"
      },
      "viewPraise(address,uint256)": {
        "notice": "used to view user's praise"
      },
      "viewUserPraiseData(address)": {
        "notice": "used to view user praise data"
      }
    }
  }
}